:100000000C941B030C9464030C9464030C9464031D
:100010000C9464030C9464030C9464030C946403C4
:100020000C9464030C9464030C9470230C94442487
:100030000C946B1C0C9464030C9464030C94640384
:100040000C9464030C9464030C9464030C94640394
:100050000C9464030C94B61C0C9464030C94640319
:100060000C9464030C9464030C9464030C94640374
:100070000C9464030C9464030C9464030C94640364
:100080000C9464030C9464030C9464030C94640354
:100090000C9464030C9464030C9464030C94640344
:1000A0000C9464030C9464030C946403C800BE00B5
:1000B000B40000000B02BFFFFFFF000000000902B8
:1000C00080FFFFFF0000000037010000FFFF00007D
:1000D000000029003A003B003C003D003E003F008C
:1000E00040004100420043004400450046004C00EF
:1000F00035021E001F0020002100220023002400E2
:100100002500260027002D002E002A0000000000F8
:100110002B0014001A000800150017001C0018001E
:100120000C00120013002F003000310000003900D5
:1001300004001600070009000A000B000D000E0065
:100140000F0033003400280000000000E1001D0013
:100150001B000600190005001100100036003700D2
:1001600038005200E10000000000E0000151E3000F
:10017000E2002C002C002C000000E6000151500091
:1001800051004F00E400005CC25CC35CC55CC75C0E
:10019000C95C010001000100010001000100010033
:1001A00001000100010001000100C65CC85CCA5CDE
:1001B0000100010001000100010001000100010037
:1001C0000000000001000100010001000100010029
:1001D0000100010001000100010001000100010017
:1001E0000000010001000100010001000100010008
:1001F00001000100010001000100010000000000F9
:1002000001000100010001000100010001000100E6
:100210000100010001004B0001000000000001008E
:1002200001000100010001000100010000000100C7
:1002300001004A004E004D000100010001000100D4
:1002400001000100010001000100010001000100A6
:100250000100010001000100010001000100010096
:100260000100010001000100010001000100010086
:100270000100010000000000010001000100010078
:100280000100010001000100010001000100010066
:100290000100010000000100010001000100010057
:1002A0000100010001000100010001000100010046
:1002B0000000000001000100010001000100010038
:1002C0000100010001000100010001000100000027
:1002D0000000010001000100010001000100010017
:1002E00000000100010001000100010001007F3F4A
:1002F0001F643214643214783C1E1E140A05222333
:10030000252628292A2C2D2F3032333536383A3BF2
:100310003D3E4042434547494A4C4E505153555744
:10032000595A5C5E6062646668696B6D6F71737563
:1003300077797B7D7F81838587898A8C8E90929463
:1003400096989A9C9E9FA1A3A5A7A8AAACAEAFB170
:10035000B3B4B6B8B9BBBCBEBFC1C2C3C5C6C7C9BA
:10036000CACBCCCDCED0D1D2D2D3D4D5D6D7D7D874
:10037000D9D9DADADBDBDBDCDCDCDCDCDDDDDDDDC6
:10038000DCDCDCDCDCDBDBDBDADAD9D9D8D7D7D6CE
:10039000D5D4D3D2D2D1D0CECDCCCBCAC9C7C6C585
:1003A000C3C2C1BFBEBCBBB9B8B6B4B3B1AFAEACCB
:1003B000AAA8A7A5A3A19F9E9C9A98969492908E76
:1003C0008C8A89878583817F7D7B79777573716F4F
:1003D0006D6B6968666462605E5C5A59575553512B
:1003E000504E4C4A4947454342403E3D3B3A3836E1
:1003F000353332302F2D2C2A292826252322FFAAF7
:100400007F554000010101010101010101020202C9
:1004100002020202020203030303030303030404B0
:10042000040404040405050505050606060606077A
:100430000707070708080808090909090A0A0A0B33
:100440000B0B0C0C0C0D0D0D0E0E0E0F0F0F1010D4
:10045000111111121213131414151516161717185B
:100460001819191A1A1B1B1C1D1D1E1E1F202021C6
:100470002222232424252626272829292A2B2C2D0D
:100480002D2E2F30313232333435363738393A3B2E
:100490003C3D3E3F404142434445464748494A4C23
:1004A0004D4E4F50515354555658595A5B5D5E5FEF
:1004B000616264656668696B6C6D6F707273757785
:1004C000787A7B7D7E8082838587888A8C8E8F91E7
:1004D000939596989A9C9EA0A2A3A5A7A9ABADAF11
:1004E000B1B3B5B7BABCBEC0C2C4C6C9CBCDCFD1FB
:1004F000D4D6D8DBDDDFE2E4E7E9EBEEF0F3F5F8A4
:10050000FAFDFF04033000000014034B0065006592
:100510000062006900730074004C00540000001673
:10052000035400680065004B0065006500620069C7
:10053000007300740000000403090409023B000278
:100540000100A0FA090400000103010100092111C2
:100550000100012240000705810308000A09040187
:10056000000103000000092111010001226D0007B4
:1005700005820320000A120110010000000885E432
:10058000020001000102030105010980A1018503A8
:1005900019012AB700150126B700950175108100D1
:1005A000C0050C0901A101850419012AA002150149
:1005B00026A002950175108100C005010906A10160
:1005C0008505050719E029E715002501950875013E
:1005D00081020507190029EF1500250195F0750125
:1005E00081020508190129059505750191029501FA
:1005F00075039101C005010906A101050719E0294C
:10060000E71500250195087501810295017508819E
:10061000010507190029FF150026FF00950675083A
:1006200081000508190129059505750191029501BB
:1006300075039101C00011241FBECFEFDAE0DEBFC9
:10064000CDBF04B603FE29C08091CE039091CF03A5
:10065000A091D003B091D1038730904BA740B04B0D
:10066000E1F41092CE031092CF031092D0031092B7
:10067000D10314BE84B7877F84BF0FB6F894A895C2
:1006800080916000886180936000109260000FBECE
:10069000E091BD03F091BE03099411E0A0E0B1E048
:1006A000E2E3FEE402C005900D92AA3BB107D9F740
:1006B00023E0AAEBB1E001C01D92AE3CB207E1F726
:1006C0000E94A1200C949C260C940000089508958B
:1006D00081E008958CEA90E09093C0018093BF017F
:1006E0000895CF92DF92EF92FF926B017C0141E07F
:1006F0000E943418682F81E00E94AD0C42E0C701CF
:10070000B6010E943418682F82E00E94AD0CC70128
:10071000B601FF90EF90DF90CF90089581FB6627A0
:1007200060F980E00E94AD0C81E0089581E00895B9
:100730000C94680308950C949A031F93CF93DF934E
:1007400000D000D00F92CDB7DEB749835A836B83B8
:100750003091E20189819A8131111DC06623B9F07F
:100760002223A9F00E944E19182F682F89819A819F
:100770000E94FA1869817A81812F0F900F900F9053
:100780000F900F90DF91CF911F910C9451040E9414
:100790002619182FEFCF0E944E1969817A81EDCF6B
:1007A000FC01262F408151816281738184810C94E8
:1007B0009D03CF93DF93EC0160E00E94D003BE0164
:1007C000DF91CF910C949B030E94921A811102C079
:1007D0000E94391B0C9453060C94550608950C94F2
:1007E000EE030C948E03CF93C82F0E94EF038C2F3F
:1007F000CF910C94F10308950E9451140E94FB03C1
:100800002FEF84E39CE0215080409040E1F700C04E
:1008100000000C94DA1C0F931F93CF93DF93EC012D
:1008200061E00E94D0038C01BE010E9498038823DE
:1008300059F1BE01C8010E94770E882329F1BE013B
:10084000C8010E94B80E8823F9F0BE01C8010E94B9
:10085000DB0F8823C9F0BE01C8010E94720D8823F6
:1008600099F08A81882339F001158CE5180751F039
:100870000E3D1C4579F0CE01DF91CF911F910F9174
:100880000C9496030E94FC0380E0DF91CF911F91AE
:100890000F9108950E94391BF7CF90E080E00895F2
:1008A0000895972F70E02FE0929F600D711D112425
:1008B000FB019AE5899FE00DF11D1124EE0FFF1F4A
:1008C000EE52FF4F859194910895FC01EE0FFF1FAA
:1008D000E251FD4F859194910895CF93DF930E944B
:1008E00051040E947905EC01811520E5920708F07A
:1008F00041C0811530E4930708F0B4C0803E9105F3
:1009000018F5803C910508F09DC0883A910570F477
:10091000853A910508F08EC081309105F9F0009775
:10092000E9F00497D8F4D0E0C0E018C08F3B9105FF
:10093000D0F7C85AD0E0CC0FDD1FC15EDE4F099062
:10094000D881C02DD4640AC08115904258F4C115D5
:1009500081E0D80718F4C83ED10528F7CE01DF9111
:10096000CF910895C11590E3D90708F071C0CE0169
:100970009F706AC0811525E5920758F5811534E509
:10098000930708F09EC0811542E5940750F4C11505
:1009900081E5D80708F469C0DC2FCC27C16FD06A85
:1009A000DDCF982F969596959E0123703327C1151C
:1009B000D34508F077C0C1E0D0E002C0CC0FDD1F06
:1009C0002A95E2F720E2929FC0011124C82BD92B6F
:1009D00067C0C11589E5D807A8F4C11598E5D907FE
:1009E00008F074C0C11526E5D20708F09CCF8C2F03
:1009F0000E941006C82FD0E0DC2FCC27CC27DF7157
:100A0000D062ACCFC1153AE5D30708F464C0CE017B
:100A100090568115904208F086CF8D2F8F710E94DD
:100A2000100690E0982F882788279F719C012C2B17
:100A3000E901E6CFC55AD0E0C35BDE4FC881D0E004
:100A4000D0648CCF805C91090E946504EC0186CF54
:100A5000CE019927D3FF03C0EC01D86C7FCFEC0106
:100A6000D06C7CCFDF70D06A79CFCE01E4E0969570
:100A70008795EA95E1F783702C2F269526952370AC
:100A800090E2299F90011124382B8C2F8370C1E0B4
:100A9000D0E002C0CC0FDD1F8A95E2F7C22BD32B2A
:100AA000DC685CCFC1E0D0E002C0CC0FDD1F2A952E
:100AB000E2F730E2939FC0011124C82BD92BDA68EA
:100AC0004DCFD82FCC27C46FD06A48CFDC2FCC278E
:100AD000C06FD06A43CF8C2F8F700E94100634E015
:100AE000D695C7953A95E1F7CF709C2FEC01D06968
:100AF00035CF82389105B1F1B0F48133910509F415
:100B000075C048F48932910509F469C08A329105AB
:100B100009F473C008958533910509F459C08933E8
:100B2000910501F10895833E9105A9F138F4803EC5
:100B30009105F9F0823E910549F10895863E9105AF
:100B4000A9F1873E9105C9F1843E910519F52091DF
:100B5000C00321FF1FC08091BF0384FD14C087EE36
:100B600090E008952091BF032370A1F080EE90E003
:100B700008952091BF0320FD47C03091C00330FF8E
:100B800009C024FF44C090E080E004C02091BF036E
:100B900022FDF7CF08952091BF0322FD3BC0309185
:100BA000C00330FDE3CF24FFF5CFEDCF2091BF038D
:100BB00023FFF0CF24FDE7CFD2CF2091BF0323FD49
:100BC0002CC03091C00331FFEECF84EE90E0089549
:100BD0002091BF0325FFDECF89E290E008952091A8
:100BE000BF0325FFD7CF85E390E008952091BF0391
:100BF00026FFD0CF8AE290E008952091BF0326FF20
:100C0000C9CF81E390E0089589E390E0089583EEF1
:100C100090E0089582EE90E0089586EE90E00895C9
:100C20009091BF0392FF06C0282F28712830F9F455
:100C3000877F846093FF06C0282F28712831F1F444
:100C4000877E84612091C00320FF06C0382F387151
:100C50003830D9F4877F816021FF06C0282F2871A2
:100C60002831D1F4877E816194FD877E0895282FF5
:100C700024712430F9F68B7F8860DCCF282F247113
:100C8000243101F78B7E8861DDCF382F317131300F
:100C900019F78E7F8860E0CF282F2171213121F74D
:100CA0008E7E8861E1CF0C9466030C946703E82F75
:100CB000F0E0EE0FFF1FE854FD4F80819181089511
:100CC000089580EA8A95F1F70895AFE5B1E061E013
:100CD00070E08D91E82FE295EF70F0E041A18F7008
:100CE0009B0101C0220F8A95EAF7922F90959423D9
:100CF00091A382A1822B82A381E0A536B80749F790
:100D0000A0E5B1E061E070E08D91E82FE295EF7031
:100D1000F0E041A18F709B0101C0220F8A95EAF794
:100D2000922F9095942391A382A1822B82A381E09C
:100D3000AF35B80749F7ECEAF2E0A8EBB2E088EB90
:100D400092E0119211921D921D928E179F07C9F782
:100D500086E00E9434070C94E4038F929F92AF9236
:100D6000BF92CF92DF92EF92FF920F931F93CF9398
:100D7000DF938FE5E82E81E0F82E0CEA12E0912C4B
:100D8000AA24A394B12CF70181917F01C82FC295A9
:100D9000CF70D0E099A18F70650101C0CC0C8A950D
:100DA000EAF7892F8C2989A38AA18C2C8094882129
:100DB0008AA30E946106E0E5F1E050E040E030E007
:100DC00020E06191A62FA295AF70B0E090968C9133
:100DD00090E06F7002C0959587956A95E2F780FD67
:100DE0003EC0C501042E02C0880F991F0A94E2F785
:100DF000282B392B4F5F5F4F4F30510511F789A1D9
:100E0000882289A28AA1C82ACAA2F8018081918178
:100E10002817390739F13183208381E0982A0E5F42
:100E20001F4FF5E6EF16F1E0FF0609F0ACCF292DD4
:100E300046E068EB72E08CEA92E00E9435070E947F
:100E4000EC03892DDF91CF911F910F91FF90EF90CF
:100E5000DF90CF90BF90AF909F908F90089590E0DB
:100E600080E0C6CF80E0DACF0895FF920F931F9302
:100E7000CF93DF93F82E092F162FD72FC42F2223BD
:100E800049F081E08093BC010E949B1C9093BB01C0
:100E90008093BA018091BC018823A1F08091BA01AE
:100EA0009091BB010E94A71C069760F0EF2DF02FD8
:100EB000A12FBD2F90E080E0D0E08C179D0744F07B
:100EC0001092BC01DF91CF911F910F91FF90089577
:100ED000219131912D933D930196EFCFAF92BF9227
:100EE000CF92DF92FF920F931F93CF93DF93362F12
:100EF000472FE82FF0E0ED5FFB4F71110DC06491BB
:100F0000762F862FDF91CF911F910F91FF90DF9069
:100F1000CF90BF90AF900895C72FD0E02491F22ECC
:100F2000022F10E056E0659FC0011124EFEFF0E0C2
:100F3000BF010E940426832F90E0880F991F35E59A
:100F4000369FD001379FB00D11248A1B9B0B982F21
:100F5000990F980F6F01CC1ADD0AC09ED001C19E77
:100F6000B00DD09EB00D11248B2F949FA0011124A1
:100F7000452F55276F01C41AD50AC09EA001C19EF6
:100F8000500DD09E500D11245F01A91AB108AC9EDE
:100F90006001AD9ED00CBC9ED00C1124CD2CDD2464
:100FA000EC19FD09E09FE001E19FD00DF09FD00D0D
:100FB0001124ED2F62307105A1F048F4611571051F
:100FC00069F06130710589F0EB2F852F07C064301F
:100FD000710571F088F066307105B1F76E2F722FD0
:100FE00091CFE22F2B2F8D2FF9CFE22F252FF6CF88
:100FF000EB2F822F2D2FF2CF2B2F8F2DE52FEECF22
:101000000895CF93DF93762FE901682F842F0E94F4
:101010006E07798368838A83DF91CF9108958091E9
:10102000C402982F9E7F29F4817082608093C4024D
:1010300008958634E8F381708464F8CF88E090E006
:101040000C945C26CF92DF92EF92FF926B017C01B1
:101050000E940F08B701A60188E090E0FF90EF9092
:10106000DF90CF900C947A26E4ECF2E083E080836A
:1010700011828FEF828383831482608171818281E8
:1010800093810C9422088091C40280FF02C086954F
:10109000089580E008958091C802833018F48F5F2E
:1010A0008093C8026091C4027091C5028091C6020B
:1010B0009091C7020C9422088091C802882319F0ED
:1010C00081508093C8026091C4027091C5028091E2
:1010D000C6029091C7020C94220821E030E001C0C2
:1010E000220F8A95EAF79091CA01922381E009F4D0
:1010F00080E0089570E00C94DE0D6F927F928F92E5
:101100009F92AF92BF92CF92DF92EF92FF920F9396
:101110001F93CF93DF9300D000D00F92CDB7DEB7EF
:10112000709003019091C40290FF26C0C090BF014F
:10113000D090C001C114D10489F58091020133E03F
:10114000839FC0011124672D87539D4F0E947A0809
:101150000F900F900F900F900F90DF91CF911F91F4
:101160000F91FF90EF90DF90CF90BF90AF909F9046
:101170008F907F906F9008958091040120910501D8
:1011800033E0839FF0011124E753FD4F821770F67F
:101190001182108212828F5F3396F8CF90FFCDCFED
:1011A000F12CE12C43E0642E8E2D0E946D088823E3
:1011B00009F43CC0F701EE0FFF1FEC0DFD1DA590DB
:1011C000B490A114B10409F4B8CF45E050E0B501E2
:1011D000CE0101960E943E2609810F3F39F18A8196
:1011E000800F9927991F8135910514F080E590E0D3
:1011F0004C01880C991C880D991D9C0127533D4F6B
:101200004901069D8001112407531D4F081519053A
:1012100020F035E0A30EB11CD8CF98014D816C8130
:101220008B810E9401080D5F1F4FF0CF8FEFE81AEE
:10123000F80A28E0E216F10409F0B6CF7ECF9091CB
:10124000C40290FF14C0909104012091050133E085
:10125000939FF0011124E753FD4F921710F00C9467
:101260007D088183608342839F5F3396F6CF089524
:10127000CF93DF9300D00F92CDB7DEB79091C40229
:1012800090FF0AC09E012F5F3F4F0E9401084B81D3
:1012900069818A810E941F090F900F900F90DF9142
:1012A000CF910895CF93DF93EC01EC81F0E0E25011
:1012B000FD4F4491E4ECF2E0628181810E943809A3
:1012C0008C818F5F8C83DF91CF910895CF93DF93D3
:1012D000EC01E4ECF2E0438162818C810E943809E8
:1012E0008C818F5F8C83DF91CF910895AF92BF92F5
:1012F000CF92DF92EF92FF920F931F93CF93DF93E2
:1013000000D00F92CDB7DEB7182FF62E042FE22EA5
:101310009091C40290FF29C0E92FE695AE2FB0E06E
:10132000AB59BE4F8C918093C8019E7F923059F586
:101330009E012F5F3F4F812F0E9401084B816981E1
:101340008A810E941F091093C502F092C602009381
:10135000C702EE2051F06091C4027091C5028091E5
:10136000C6029091C7020E9422080F900F900F9022
:10137000DF91CF911F910F91FF90EF90DF90CF9071
:10138000BF90AF900895823019F40091C702DBCF6F
:10139000863019F41091C502D6CF8930D9F388313F
:1013A00091F6E8518E2F8170D82EE695F0E0E2504C
:1013B000FC4FA590B490C12CBB2460910601C616C9
:1013C00018F00E947D08BFCF2C2D30E0A29EC001F6
:1013D000A39E900DB29E900D112470E00E940426F1
:1013E000812FD11013C0860F40910401420F532F5B
:1013F000511D9A01220F331F240F351F27533D4FD4
:10140000402F6F2D0E940108C394D7CF861BECCFCD
:10141000E4ECF2E09181282F4381628188E0890F1A
:101420000C94760981E00C94080AE4ECF2E09181D6
:10143000282F4381628188EF890F0C94760981E01F
:101440000C94150AE4ECF2E0628121E1620F08F4E9
:101450006FEF282F438181810C94760981E00C94F1
:10146000220AE4ECF2E0628121E1621B08F460E010
:10147000282F438181810C94760981E00C94310AF4
:10148000E4ECF2E0438121E1420F08F44FEF282F12
:10149000628181810C94760981E00C94400AE4EC2D
:1014A000F2E0438121E1421B08F440E0282F6281F1
:1014B00081810C94760981E00C944F0A20E00C9411
:1014C0007609EF92FF921F93CF93DF93EC0110E028
:1014D000EE24EA94F12C60910601161770F00E9438
:1014E0007D089A818C8190FF27C08F5F8C83DF916C
:1014F000CF911F91FF90EF90089520910401422F0A
:10150000410F5527551FCA019A01220F331F280F7B
:10151000391F27533D4F70E0C7010E941826962FB0
:101520008C814091C7026091C602199F800D1124E1
:101530000E9401081F5FCFCF8150D8CFAF92BF92DA
:10154000CF92DF92EF92FF920F931F93CF93DF938F
:10155000FC0182810FEF80FF01E010E040E5A42E46
:10156000809106011817C8F00E947D088091BE0185
:10157000013009F055C0811102C0809106018150EF
:101580008093BE01DF91CF911F910F91FF90EF905B
:10159000DF90CF90BF90AF900895C0910401C12E0D
:1015A000D12CCC0DDD2DD11DCE01880F991FC80F78
:1015B000D91FC753DD4F198218821A8234E0E32EF7
:1015C000F12CB12C8091BE018B0D81351CF16A2D5F
:1015D0000E94F625892F082E000C990BC816D906F3
:1015E00091F48091C7028E9DA0018F9D500D112412
:1015F00055954795559547959E016091C6028091F6
:10160000C5020E940108B00EF1E0EF1AF108D1F610
:101610001F5FA6CF87FFDFCF90910601890FDBCF39
:1016200090E001966091060170E00E941826A8CF14
:101630000F931F93CF93DF93809104019091050145
:1016400023E0829FF0011124E753FD4F891740F1F9
:10165000C0E0D3E060910601C61740F10E947D080A
:10166000209100018091BD01820F8093BD01909176
:101670000101920F90930101191654F4082E000CE9
:10168000990B409106014150550B841795071CF0AA
:10169000219520930001DF91CF911F910F91089523
:1016A0001182108212828F5F3396D0CF0C2F10E000
:1016B00070E0C8010E94182620910401820F482F73
:1016C00050E02091BD01022E000C330B02171307CE
:1016D000BCF020910101022E000C330B20173107C2
:1016E0007CF08D9F9001112427533D4F4091C702FC
:1016F0006091C6028091C5020E940108CF5FAACF07
:10170000FA01EE0FFF1FE40FF51FE753FD4F1182A3
:1017100010821282F3CF0F931F93CF93DF93EC01CC
:1017200010E000E0909106019017110609F06CF4AA
:101730000E947D088C8190E00196817099278C83AE
:10174000DF91CF911F910F91089520910401A8017D
:10175000420F511D9A01220F331F240F351F2753AB
:101760003D4F4C816091C6028091C50296959017BD
:10177000110651F04CF0442349F04091C7020E94F9
:1017800001080F5F1F4FCECF4423B9F340E0F7CFDE
:10179000E4ECF2E080818E7F8083608171818281C0
:1017A00093810E9422081092C9012FEF80E792E0F6
:1017B000215080409040E1F700C000000C947D086B
:1017C000E4ECF2E080818E7F80831092C9012FEFDC
:1017D00080E792E0215080409040E1F700C0000097
:1017E0000C947D086091C402669570E04BE050E077
:1017F00087E091E00E944726892B19F481E08093CD
:10180000C9010E949B1C9093C2018093C10108955D
:101810009091C40290FF35C09170811128C09260F0
:101820009093C402662351F06091C4027091C50286
:101830008091C6029091C7020E9422086091C40262
:10184000669570E04BE050E087E091E00E9447260B
:10185000892BA1F01092C90181E08093C4014091CD
:10186000C7026091C6028091C5020C945E0A833261
:1018700010F09464D5CF880F982BD2CF0E94F20B32
:10188000EBCF0895682F9091C402969581E0890F5F
:10189000833208F081E00C94080C81E00C94420C37
:1018A000682F9091C40296958FEF890F09F482E218
:1018B0000C94080C81E00C94500C61E00C94080C22
:1018C000E4ECF2E080818160808386950C945D0C6D
:1018D0008091C40280FD0C94C80B0C94600C60E0F5
:1018E0000C94080C8091C70181112EC00E94921A9D
:1018F000811104C00E94391B0E9434080E941E08F6
:101900006093C4027093C5028093C6029093C7028D
:101910006E7F61F40E9434080E941E086093C40226
:101920007093C5028093C6029093C7020E940F086D
:101930001092C9018091C40280FF03C086950E9465
:101940006F0C81E08093C7010895E4ECF2E08081A0
:101950008160808386950C946F0C21E030E0A901B2
:1019600002C0440F551F8A95E2F7CA012091CA01AF
:10197000662361F0822B8093CA018091C901811195
:1019800008C08091C40286950C946F0C80958223C8
:10199000F2CF08951092C90108950F931F93CF932A
:1019A000DF938091C901882309F47DC08091C8012B
:1019B000E091C402E695E81BE093C3018230C9F5CB
:1019C000F0E0E650FD4FE491CE2FD0E002E519E0C3
:1019D0008091C401882389F01092C4010E949B1C4D
:1019E0009E0120953095820F931F9093C2018093A2
:1019F000C1011092C6011092C5018091C101909160
:101A0000C2010E94A71C8C179D0708F44CC0E091EE
:101A1000C101F091C201CE0FDF1FD093C201C0936C
:101A2000C10181EC91E0F801DF91CF911F910F91FD
:101A30000994863049F4F0E0E950FD4FE491CE2F4F
:101A4000D0E006E619E0C4CF893051F4E695F0E025
:101A5000EC50FD4FE491CE2FD0E001E61AE0B8CF74
:101A60008F3051F4E695F0E0EF50FD4FE491CE2F2A
:101A7000D0E00EE91AE0ACCF853149F4F0E0E25154
:101A8000FD4FE491CE2FD0E008E11BE0A1CFC4EFE1
:101A9000D1E00BE81BE0823209F49ACFC0EDD7E029
:101AA00000E018E095CFDF91CF911F910F9108953D
:101AB000FA01811101C0FB010994CF93DF93C82F74
:101AC000D62F0E9443088C1740F00E9443088D17C0
:101AD00020F4DF91CF910C944D0C8C2FDF91CF919E
:101AE0000C945D0C0F931F93CF938C01FB01C2816B
:101AF000CC2309F461C00E94E3198272F801E25C10
:101B0000FC45E431F10538F4E256F94D0C942C26ED
:101B10000E94680CC0E08C2FCF911F910F91089507
:101B20004AE55CE06DE47CE00E94580DF3CF4DE4A3
:101B30005CE06AE57CE0F8CF4FE15AE062E17AE0F0
:101B4000F3CF42E15AE06FE17AE0EECF4DE35AE0A5
:101B50006EE27AE0E9CF4EE25AE06DE37AE0E4CF5C
:101B60004BE55AE06CE47AE0DFCF4CE45AE06BE5F9
:101B70007AE0DACF4CE558E06BE478E0D5CF4BE47F
:101B800058E06CE578E0D0CF81E00E945D0CC2CFD8
:101B900065E082E00E945D0DBDCF68E086E0FACF8F
:101BA0006EE089E0F7CF64E18FE0F4CF67E185E193
:101BB000F1CF61E288E1EECFC1E0ADCF259A45B12A
:101BC0004F7D55B15062EFB7F8949B01220F331F40
:101BD000260F371F280F391F2817390741F4EFBF89
:101BE0008FE594E00197F1F700C000000895DC0153
:101BF0006D91CD0178E055B9000000C067FF45B98F
:101C0000660F000000C000C000C045B900C07A9552
:101C100091F7E2CF0F931F93CF93DF93C62FD42F6B
:101C2000022FFC0182818823C9F06093CD010E94BC
:101C30009B1C9093CC018093CB0180E28C0F883069
:101C400008F050C0C77081E001C0880FCA95EAF75C
:101C5000DF91CF911F910F910C94E4111091CD0160
:101C6000161335C08091CB019091CC010E94A71C26
:101C7000883C910560F5C0E2CD0F1D17B9F080E2F8
:101C8000810F883040F4177081E001C0880F1A95E9
:101C9000EAF70E94EB11C83048F481E09D2F97705D
:101CA00001C0880F9A95EAF70E94E411802F0E94E4
:101CB000D111C830B8F4D77081E001C0880FDA952F
:101CC000EAF7DF91CF911F910F910C94EB1180E215
:101CD0008C0F883038F4C77081E001C0880FCA9536
:101CE000EAF7EFCFDF91CF911F910F9108959C01FB
:101CF000CB01233F4CE5340731F190F4283DFCE55E
:101D00003F07E9F0293D4CE5340769F1273D3C45A3
:101D100079F426E241EE61EE0E940A0E80E0089519
:101D2000253FFCE53F07B9F090F0263F3C45B9F070
:101D3000FC0182818823D1F01092CD01089527E221
:101D400045EE65EEE9CF26E241EE60EEE5CF27E213
:101D500045EE64EEE1CF26E241EE62EEDDCF27E212
:101D600045EE66EED9CF28E241E0EBCF81E0089561
:101D7000CF93DF93EC01FB018281882309F419C121
:101D8000C230FCE5DF07C0F1C6319CE5D90730F071
:101D90009E012A5F3C452930310570F50E94AF1A3B
:101DA0009093C0038093BF03C031ECE5DE0709F4D4
:101DB000CFC008F05BC0C8308CE5D80709F4B6C0C6
:101DC00088F5C430ECE5DE0709F4A8C0C0F4C230E1
:101DD0008CE5D80709F49CC08091BF038260C330B2
:101DE000DC4509F498C08091BF039091C0030E9424
:101DF000BD1A0E94511480E0DF91CF910895809127
:101E0000BF038061C630ECE5DE0709F484C0809131
:101E1000BF038860C730DC4508F47DC08091BF03F4
:101E2000806279C0CC308CE5D80709F489C070F4A1
:101E30008091BF038C60CA30ECE5DE0709F46BC00B
:101E400008F478C08091BF038E7F65C0CE308CE5EA
:101E5000D80709F479C08091BF038B7FCF30DC4570
:101E600008F459C08091BF038F7E55C0CB3FECE58D
:101E7000DE0709F457C030F5C3318CE5D80709F403
:101E80006FC078F4C131ECE5DE0709F465C0C231FA
:101E9000DC4509F0A8CF0E9451148091BF038F77D1
:101EA0003AC0C5318CE5D80709F462C008F476C0A1
:101EB0008091C0038160CA3FDC4509F094CF8093D4
:101EC000C00391CFCF3FFCE5DF0709F44DC088F494
:101ED0008091C0038D7FCD3F9CE5D90781F3809130
:101EE000C0038E7FCE3FDC4550F38091C0038360FA
:101EF000E6CFC130FDE5DF0709F459C008F444C05E
:101F000080E0C230DD4509F06ECF0E943B1B6BCFF5
:101F10008091BF0381608093BF0365CF8091BF0331
:101F20008460F9CF8091C0038260C9CF8091BF03E4
:101F30008064F1CF0E9451148091BF038068EBCF81
:101F40008091BF038D7FE7CF8091BF03877FE3CF71
:101F50008091BF038F7DDFCF8091BF038F7BDBCF6D
:101F60008091BF03837FD7CF8091C0038C7FA7CFA1
:101F70008091BF0382FB992790F921E0922790FB83
:101F800082F990FB83F9C7CF8091C003982F909579
:101F900091708E7F892B90FB81F991CF0E94511413
:101FA0009091BF03892F97FB87F98058B4CF81E0C8
:101FB000ACCF81E021CFCF93DF93EB0186319C45FD
:101FC00011F50E94E3199A81992399F08A7A91E098
:101FD00009F490E09093CE01811109C089E20E943A
:101FE000BE190E942F1A80E0DF91CF91089585E3FA
:101FF000F6CF8091CE01811104C089E20E94C519FB
:10200000F0CF85E3FBCF81E0EFCF9093D4018093B5
:10201000D3010895E091D301F091D401309721F0DC
:102020000190F081E02D099480E00895E091D301C2
:10203000F091D401309799F020911E01222359F09C
:102040002091BF0327FF07C0DC012C9111962C9330
:10205000119725E02C930280F381E02D09940895D7
:102060002091D1013091D2012817390771F0909356
:10207000D2018093D101E091D301F091D401309746
:1020800021F00680F781E02D099408952091CF0179
:102090003091D0012817390771F09093D0018093C7
:1020A000CF01E091D301F091D401309721F0008469
:1020B000F185E02D0994089585B7806885BF85B7BF
:1020C000806885BF0895089508950C9463100C945A
:1020D0006A030E945C100E9464100C94651081E0F9
:1020E00008950C946F100E94921C0E9465060E9435
:1020F000651D0E94720C0C9467107F928F929F92C4
:10210000AF92BF92CF92DF92EF92FF920F931F9305
:10211000CF93DF93CDB7DEB72A970FB6F894DEBF23
:102120000FBECDBF0E94AD060E947110882309F436
:1021300071C046EDA42E41E0B42E10E000E0702EF8
:10214000802F0E9457066C01F501819091905F01EC
:102150008816990609F458C08091840281FD0E9476
:10216000600680E0EE24E394F12C8C249D249401FD
:102170002E213F21232B09F441C08E837F82CE2064
:10218000DF2081E0CD2809F480E088870E949B1C35
:102190008160782F9A8789874E815F8168858A85DB
:1021A0000E942F11000F111FF801EA52FE4F80818B
:1021B0009181E826F926F182E0820E94CD0C0E94EE
:1021C0000A109091D5018917B1F10E940A108093ED
:1021D000D5012A960FB6F894DEBF0FBECDBFDF91B2
:1021E000CF911F910F91FF90EF90DF90CF90BF9014
:1021F000AF909F908F907F900C94F3038F5FEE0CC5
:10220000FF1C8F3009F0B3CF0F5F1F4F0630110551
:1022100009F095CF8FEF89838A831B820E949B1CD4
:102220008160782F9D838C8349815A816B818D8158
:102230000E942F11C2CF2A960FB6F894DEBF0FBEB0
:10224000CDBFDF91CF911F910F91FF90EF90DF9065
:10225000CF90BF90AF909F908F907F900895CF9335
:10226000DF93CDB7DEB72B970FB6F894DEBF0FBE66
:10227000CDBF4F83588769877A878B871E821D82DF
:1022800085E0FE013796DE01119601900D928A9548
:10229000E1F749815A816B817C818D819E812B96EA
:1022A0000FB6F894DEBF0FBECDBFDF91CF910C9477
:1022B000C716FC01808191810C949019CF93C82F8F
:1022C000882309F444C08CEF8C0F813AC8F48C2F1A
:1022D0000E94FB1E81113BC06C2F809112019091D6
:1022E00013010E94541B882329F08C2F0E94C519CA
:1022F0000E942F1A8C2F0E94BE19CF910C942F1A76
:1023000080E28C0F883048F4C77081E001C0880FEC
:10231000CA95EAF70E94E619F0CFEBE5EC0FE3303F
:1023200040F4F0E0EA54FE4F808190E0CF910C94AD
:102330003010C85AC73158F4EC2FF0E0EE0FFF1FF1
:10234000E857FE4F80819181CF910C944610CF9138
:102350000895882329F19CEF980F913A20F40E9468
:10236000C5190C942F1A90E2980F983050F487708A
:1023700091E001C0990F8A95EAF7892F0E94EC1924
:10238000F0CF9BE5980F933020F490E080E00C9420
:102390003010885A873120F490E080E00C94461089
:1023A0000895CF93C82F0E945E11C93349F42FEFCF
:1023B00087EE93E0215080409040E1F700C000009C
:1023C0008C2FCF910C94A911882321F00E94E6193B
:1023D0000C942F1A0895882321F00E94EC190C9474
:1023E0002F1A0895BF92CF92DF92EF92FF920F9330
:1023F0001F93CF93DF936C01D62FC72FFC0105816C
:1024000002950F70128111110E94031A0E94DC19AB
:10241000E82E882391F01123D1F08C2F807F803417
:1024200021F080E28D0F883090F082E00E947A1ACD
:102430000E94DC1991E0E82EE926BC2EB2949FE0C0
:10244000B922EB2DF0E0EE54F94D0C942C26E12C42
:10245000F4CF0C2F0F70C07F11F00295007F112375
:10246000A9F0002359F080E28D0F883010F0D111CF
:1024700009C0802F0E94E6190E942F1A8D2F0E94FA
:102480005E1114C0802F0E94F619F6CF8D2F0E9486
:10249000A911002359F080E28D0F883010F0D1117E
:1024A0002CC0802F0E94EC190E942F1A2B2D28502F
:1024B000330B2430310520F40E940A100E94F303EC
:1024C000EE2009F493C10E94D81980FD8FC1F60156
:1024D00012820E94D2190E945E18C6010E9417142F
:1024E0000E94D219DF91CF911F910F91FF90EF9031
:1024F000DF90CF90BF900C947F18802F0E94FC1922
:10250000D3CFFC2FFF70FF2EC07FC03219F0F294A2
:1025100080EFF822DD2369F0D13049F1112391F1E8
:10252000002351F1F601858180FFA8CF8F7085834C
:1025300023C0112381F0011106C00E94161A8F29B1
:102540000E94E411B3CF0130C1F70E94161A8F29FF
:102550000E941C1AABCF011106C00E94251A8F2DB4
:102560000E94EB11A3CF013009F4A0CFF6CF1123C5
:1025700029F0063008F09ACF8F2DE2CF053008F011
:1025800095CFEDCF002359F3D93349F4FFEF27EE70
:1025900033E0F15020403040E1F700C000008D2FC3
:1025A0000E94A91183CF8C2F86958695837069F040
:1025B000813009F07BCF8D2F9C2F9370111102C0B9
:1025C00090E080E00E94461071CF8D2F9C2F937079
:1025D000111102C090E080E00E94301067CF8C2F74
:1025E000837009F041C0111161CF4D2F429546957E
:1025F0004770440F440F0D2F0F7010E030E020E0C3
:10260000042E04C0000F111F221F331F0A94D2F79B
:1026100060E070E0CB01D4FF0FC06FE070E080E0BD
:1026200090E004C0660F771F881F991F4A95D2F764
:102630006095709580959095C695C695C370602BF2
:10264000712B822B932BC23049F058F4C13019F012
:102650000E94FD172BCF0E94EB1728CF0E940F1866
:1026600025CF0E94E91722CF8695112311F08C2FD8
:102670008170882309F41ACF4D2F429546954770F3
:10268000440F440F0D2F0F7010E030E020E0042EB7
:1026900004C0000F111F221F331F0A94D2F760E0FD
:1026A00070E0CB01D4FF0FC06FE070E080E090E0FD
:1026B00004C0660F771F881F991F4A95D2F760954F
:1026C000709580959095C695C695C370602B712BBB
:1026D000822B932BC23049F058F4C13019F00E947C
:1026E000D518E4CE0E94C318E1CE0E94E718DECED2
:1026F0000E942318DBCECF70112329F08C2F0E946B
:102700005E188D2F1DCF8D2F0E94EB118C2F0E94F4
:102710007F18CCCED23F89F160F4D03FC9F0D13FD1
:1027200029F1112309F442C00111A8CE8C2F8F7119
:1027300021C0D33F39F1D43FA1F7112369F1CF7103
:102740008C2F0E945E1863E08C2F0E94651AAECE1B
:10275000112341F0053008F0A9CE8C2F8F710E9413
:10276000A218A4CE063008F0A1CEF7CF8C2F8F711F
:10277000112369F20E945E1899CE8C2F8F7111235C
:10278000C9F3C5CF112329F08C2F8F710E944918EE
:102790008DCE0E942F188ACE81E00E947A1A0230D4
:1027A00008F484CE82E00E947A1A80CE002359F089
:1027B000D93309F0F4CE8FEF97EEE3E081509040EB
:1027C000E040E1F7EACE8C2F8F71A1CF4C2F4F70F4
:1027D0006D2FC6010E944D040E94611767CE4C2FD9
:1027E0004F706D2FC6010E94500460CEDF91CF91D3
:1027F0001F910F91FF90EF90DF90CF90BF900895C1
:102800000F931F93CF93DF93EC01688179818A81C5
:102810000E949A198C010E94F9180E94E817B801C9
:10282000CE01DF91CF911F910F910C94F211CF93B4
:10283000DF93EC018B819C81892B29F08881998120
:1028400089238F3F59F4DF91CF910895CE010E94E3
:102850000014CE01DF91CF910C94D903CE010E94D8
:102860000B048111F3CF0E94DC19882361F38A8164
:10287000882349F382E0DF91CF910C947A1A0E9469
:10288000031A0E94131A0E942F1A90E080E00E94FF
:10289000301090E080E00C9446100E94CC190C940B
:1028A0003F140E94F3190C944D14E92FE295EF7038
:1028B000E250EE3070F4F0E0EE53F94D0C942C261B
:1028C000803F19F020F4883E20F481E00895843F91
:1028D000E1F380E00895883EC0F3813FD1F7F5CF62
:1028E00093FB882780F908950E9490190C94551441
:1028F000CF93DF9300D000D00F92CDB7DEB70F900B
:102900000F900F900F900F90DF91CF910895CF937C
:10291000DF9300D000D000D0CDB7DEB726960FB63B
:10292000F894DEBF0FBECDBFDF91CF9108951F9306
:10293000CF93DF93C091E30116E08091E4018C1303
:1029400004C0DF91CF911F910895D0E01C9FF0014A
:102950001D9FF00D1124EB51FE4F4081518162818A
:102960007381848195810E9487142196C770E5CF79
:102970004091150250911602609117027091180251
:102980008091190290911A020C9487141F93CF938F
:10299000DF9380911A02807FA9F480911702882327
:1029A00089F08091E301C091E4016091150270917A
:1029B0001602A0911802B0911902D62FD72316E063
:1029C000C81304C0DF91CF911F91089590E0109734
:1029D00011F0DF3F19F401968770F2CF189F900134
:1029E000199F300D1124F901EB51FE4F418147131E
:1029F000F2CF40814613EFCF42814111ECCF4381AA
:102A000054814A1B5B0B483C510528F780911A0200
:102A10008F70806180931A02F901E651FE4F808128
:102A20008F708061808385E192E00E941714DF91AE
:102A3000CF911F910C949714AF92BF92CF92DF92D7
:102A4000EF92FF920F931F93CF93DF93CDB7DEB733
:102A500061970FB6F894DEBF0FBECDBF8C0185E045
:102A6000F801DE011D9601900D928A95E1F7F801BB
:102A700040815181E28085E1C82E82E0D82E6091AC
:102A80001802709119026115710509F461C19091E4
:102A9000150220911602892F82238F3F09F458C115
:102AA000A380B480F0901702F501E61BF70BFF201E
:102AB00009F4FCC080911A02382F307FE83CF10500
:102AC00008F0B2C0311179C0FE2C251323C0941335
:102AD00021C0E1101FC08F70806180931A020E9494
:102AE000B814C6010E94171480911A02F801858358
:102AF0008F2D61960FB6F894DEBF0FBECDBFDF916C
:102B0000CF911F910F91FF90EF90DF90CF90BF90EA
:102B1000AF900895AB2829F0842F85238F3F09F0CB
:102B200033C180E0F82FF170DF2E80FF3CC0809130
:102B3000E3012091E40136E0821315C04D875E87E2
:102B40008D859E850E949019292F22952F70223005
:102B5000F0F0243018F59F70F1F0F8019581907F26
:102B6000D1F4D12C1EC090E0389FF001399FF00DB8
:102B70001124EB51FE4F6181651306C0608164131F
:102B800003C062816E110FC001968770D5CF9F7010
:102B900011F0882331F3805E883018F3C8010E9459
:102BA0001714FD2CA5CFEE2009F4A2CF80911A02B4
:102BB000816080931A02F12C9BCF251306C09413D9
:102BC00004C0F801EE2009F48DC04D875E878D8525
:102BD0009E850E947414882319F1EE2009F18091DA
:102BE0001A02803270F02091150230911602388757
:102BF0002F831986BB86AA868C87CE0107960E94F2
:102C0000171486E0F801A5E1B2E001900D928A95D3
:102C1000E1F70E94C6140E94B814FF24F39468CF11
:102C2000C8010E941714F9CF311113C07A2DB98A47
:102C3000A88A6E2D89890E94781485E192E00E940D
:102C4000171486E0F60111928A95E9F70E94B814EC
:102C5000B2CF25130FC094130DC0E1100BC0F801C3
:102C60008583C8010E94171486E0F60111928A95A7
:102C7000E9F73ECF4D875E878D859E850E9474144F
:102C8000882371F2EE2061F280911A02803208F4FA
:102C9000B8CF20911502309116023A8329831B8206
:102CA000BD82AC828E83CE010196A9CFE83CF105AE
:102CB00008F041C0FE2CEE2009F4B2CF25132AC043
:102CC000941328C080911A0280FD1BC0982F907F1A
:102CD000C1F0F8018583903F31F0982F907F905F8D
:102CE0008F70892B8583C8010E94171486E0F80134
:102CF000A5E1B2E001900D928A95E1F70E94B81427
:102D0000F7CE86E0F801A5E1B2E001900D928A9538
:102D1000E1F7EECE4D875E878D859E850E94741407
:102D200081116FCF80911A02816080931A02C801CD
:102D30000E941714DDCE7A2DB98AA88A6E2D898952
:102D40000E94781486E0F60111928A95E9F7D6CFB1
:102D5000EE2009F465CF4D875E878D859E850E94A4
:102D60007414F82E882309F45BCF86E0F801A5E1FE
:102D7000B2E001900D928A95E1F785E192E00E9420
:102D800059110E94C614BACF81E08E25CBCE1F9375
:102D9000CF93DF93CDB7DEB72C970FB6F894DEBF95
:102DA0000FBECDBF4F83588769877A878B879C87F3
:102DB000CE0107960E941C15882369F08A859B85A1
:102DC000892B39F04F815885842F85238F3F09F057
:102DD00071C016E05FC086E0FE013796DE011196F5
:102DE00001900D928A95E1F78A859B85892B89F35D
:102DF00088859F8189238F3F61F32091E40130E032
:102E0000C9010196877099274091E3014817190677
:102E100071F40E9451141092E4011092E30186E0D3
:102E2000E5E1F2E0DF011D928A95E9F7D2CF96E065
:102E3000929FD001939FB00D1124AB51BE4FFE0164
:102E4000319601900D929A95E1F78093E4010E94EA
:102E50009714BFCF819FC00111248B519E4F0E94B8
:102E60001C158823E9F0E091E3011E9FF001112475
:102E7000EB51FE4F40815181628173818481958144
:102E80000E9487148091E30190E001968770992752
:102E90008093E3018091E3019091E4018913DACFFB
:102EA0002C960FB6F894DEBF0FBECDBFDF91CF9149
:102EB0001F91089569857A858B859C850E9487146A
:102EC00088CFEF92FF920F931F93CF93DF938C01E4
:102ED000892B81F0F12CEE24E394E8012196F8018E
:102EE0008491843770F4843008F05FC08130B1F091
:102EF0008230A1F1DF91CF911F910F91FF90EF9060
:102F00000895853709F44CC008F43DC09CE7980F3C
:102F1000903780F78F770E94A91149C00E5F1F4F2D
:102F2000FE01849190E2980F983060F48770FE2D36
:102F300001C0FF0F8A95EAF78F2F0E94061A0E94A0
:102F40002F1A02C00E945E118F2D815030F2EFE9DE
:102F5000FFE03197F1F700C00000F7CF0E5F1F4F81
:102F6000FE01849190E2980F983050F48770FE2D06
:102F700001C0FF0F8A95EAF78F2F0E940C1ADFCF4E
:102F80000E94A911E1CF0E5F1F4FFE01C491C150F5
:102F9000D8F28FE99FE00197F1F700C00000F7CF6A
:102FA0000E5F1F4FFE01F490CFCF0E945E118E0185
:102FB000CBCF08950C94D9170E94DA1760935B0267
:102FC00070935C0280935D0290935E020C943F14B8
:102FD00008950C94DC170F931F9300915B021091DE
:102FE0005C0220915D0230915E02602B712B822B7E
:102FF000932B1F910F910C94DC170F931F9300914B
:103000005B0210915C0220915D0230915E026023B0
:103010007123822393231F910F910C94DC170F933C
:103020001F9300915B0210915C0220915D02309130
:103030005E0260277127822793271F910F910C94BE
:10304000DC170C9471030E9421186093570270934F
:1030500058028093590290935A020C943F1460E0F6
:1030600070E0CB010C942318611571058105910561
:1030700029F481E0442361F080E00895DC01CB0174
:1030800004C0B695A795979587954A95D2F7817014
:1030900008950F931F9341E050E060E070E08A01D3
:1030A0009B0104C0000F111F221F331F8A95D2F706
:1030B000C901B8011F910F910C9423180F931F930E
:1030C00041E050E060E070E004C0440F551F661F0F
:1030D000771F8A95D2F78091570290915802A0915C
:1030E0005902B0915A028A019B01082B192B2A2BF5
:1030F0003B2BC901B8011F910F910C9423180F931A
:103100001F9341E050E060E070E004C0440F551FA1
:10311000661F771F8A95D2F7CB01BA01609570952B
:103120008095909500915702109158022091590274
:1031300030915A0260237123822393231F910F91B0
:103140000C9423180F931F9341E050E060E070E06F
:1031500004C0440F551F661F771F8A95D2F78091D0
:10316000570290915802A0915902B0915A028A01D7
:103170009B01082719272A273B27C901B8011F915E
:103180000F910C9423180F931F93009157021091E5
:1031900058022091590230915A02602B712B822BD8
:1031A000932B1F910F910C9423180F931F93009151
:1031B0005702109158022091590230915A0260230F
:1031C0007123822393231F910F910C9423180F9343
:1031D0001F9300915702109158022091590230918B
:1031E0005A0260277127822793271F910F910C9411
:1031F000231808952FE0929F800D1124982F977027
:1032000041E001C0440F9A95EAF786958695869528
:1032100095E0899FF0011124E55EFD4F90E080E08C
:1032200070E05191DF0111979B01082E02C0369585
:1032300027950A94E2F72170219525272423252735
:103240002C9301968530910561F708952FE0929FA8
:10325000800D1124982F977086958695869525E088
:10326000829FF0011124E55EFD4F50E040E080E0D8
:10327000219130E0092E02C0369527950A94E2F795
:1032800021703327042E01C0220F0A94EAF7822B03
:103290004F5F5F4F4530510559F70895BF92CF9268
:1032A000DF92EF92FF920F931F93CF93DF938C01E6
:1032B000C0905702D0905802E0905902F0905A0204
:1032C00080915B0290915C02A0915D02B0915E02E0
:1032D000C82AD92AEA2AFB2ACFE1D0E0BC2ED7019E
:1032E000C6010C2E04C0B695A795979587950A94AC
:1032F000D2F780FD0EC0219788F7B12C8B2DDF917E
:10330000CF911F910F91FF90EF90DF90CF90BF90E2
:103310000895B8018C2F0E946D04019761F3EECFE0
:10332000CF93DF93EC010E944E19BE01DF91CF9144
:103330000C946D041F93CF93DF93EB019091E20106
:10334000992331F0CB01DF91CF911F910C9490190B
:10335000882379F0CB010E944E19182F682FCE01D7
:103360000E94FA18BE01812FDF91CF911F910C941A
:103370006D04CB010E942619182FF4CF682F80917D
:103380001201909113010C94D41B682F80911201AB
:10339000909113010C94DF1B809112019091130105
:1033A0000C94EA1B80915F0285958595859508951B
:1033B00080915F028770089590915F02977081E01D
:1033C00009F480E00895809183020895909183022A
:1033D000892B80938302089580959091830298238E
:1033E000909383020895109283020895909182022F
:1033F000892B809382020895809590918202982370
:103400009093820208951092820208959091810211
:10341000892B809381020895809590918102982351
:103420009093810208951092810208958091600224
:10343000089508950C94191A90916002981721F03C
:10344000809360020C941A1A089580916002882378
:1034500029F01092600280E00C941A1A0895E0910D
:103460001201F0911301809183028083E091120197
:10347000F0911301808190918202892B8083E091E9
:103480001201F0911301808190918102892B808338
:1034900090916002992381F0E0911201F091130163
:1034A0008081892B808380911201909113010E9469
:1034B000401B81110E94251A8091120190911301E5
:1034C0000C94161008950C94621A98E0899F90014C
:1034D0001124622B60935F020E945E1880915F024C
:1034E0008595859585950C94631A10925F0280E00E
:1034F0000C94631A90915F028095892380935F02F8
:10350000282F277071F4282F082E000C330B9217E8
:10351000130639F08595859585950E947F180C9442
:10352000751A089590E080E00E94622621E08C3EAA
:103530009E4F09F020E0822F089582E090E00C94E5
:103540005426682F82E090E00C94682683E090E097
:103550000C945426682F83E090E00C946826CF9357
:1035600084E090E00E945426C82F81E290E00E94FF
:103570005426982F8C2FCF910895CF93C92F682F61
:1035800084E090E00E9468266C2F81E290E0CF9169
:103590000C946826AB01BC018FE090E00C947A2675
:1035A000AB01BC0183E190E00C947A2660E070E00E
:1035B000CB010C94D01A60E070E0CB010E94CA1AD3
:1035C0000C94D61A6CEE7EEF90E080E00E94862686
:1035D00060E082E090E00E94682660E083E090E096
:1035E0000E94682610925B0210925C0210925D02AB
:1035F00010925E0260E084E090E00E94682660E045
:1036000081E290E00E94682660E085E090E00E9400
:10361000682660E086E090E00E9468266FEF87E011
:1036200090E00E94682640E050E0BA0188E090E017
:103630000E947A2660E08DE090E00E94682640E0DB
:1036400050E0BA0188E190E00E947A2660E087E1CC
:1036500090E00E94682640E050E0BA018CE190E0E2
:103660000E947A2660E080E290E00E9468260C9436
:10367000DB1A0C94E21A682F8EE090E00C94682616
:10368000FC01329680911E01882321F08091BF03B6
:103690009EE187FF96E080E0915008F40895219123
:1036A0002223D1F38F5FF8CF662301F120911E0111
:1036B0002223F1F02091BF0327FF1AC0462F469521
:1036C000469546954E3190F4677021E030E002C097
:1036D000220F331F6A95E2F7840F911DFC0182814E
:1036E00090E02823392381E0232B69F480E00895BA
:1036F000FC01329608962191261721F0E817F90768
:10370000D1F7F4CF81E008959C01FC0132969FEF40
:1037100080E04191461751F09F3F19F4411101C0DB
:10372000982F8F5F8630A9F79F3F09F40895290FDE
:10373000311D97FD3A95F90162830895FC01329697
:1037400008962191261303C0DF0111971C92E817F8
:10375000F907B9F70895E62FE695E695E695EE3177
:1037600068F4E80FF92FF11D677021E030E001C027
:10377000220F6A95EAF78281822B82830895E62FD1
:10378000E695E695E695EE3170F4E80FF92FF11D18
:10379000677021E030E001C0220F6A95EAF72095BA
:1037A000828128232283089520911E01222329F05B
:1037B0002091BF0327FD0C94AB1B0C94841B20911C
:1037C0001E01222329F02091BF0327FD0C94BF1B6B
:1037D0000C949E1BFC01329680911E01882351F0AF
:1037E0008091BF0387FF06C08EE1DF011D928A959D
:1037F000E9F7089586E0F9CF089508950C94FD1B2C
:103800000E94FE1B8091C503843009F439C01092D8
:10381000850288E190E020E40FB6F894A8958093A3
:1038200060000FBE2093600080E00E94F3030E94BE
:10383000CA0C8091860281110AC081E080938602C1
:103840008091C4028170809387020E94E00B0E94E5
:10385000FE1B83B7817F846083BF83B7816083BF92
:103860007894889583B78E7F83BF0FB6F894A89518
:1038700080916000886180936000109260000FBEAC
:1038800008950895CF930E94FC1B0E94AD060E94EC
:10389000411CC0E08C2F0E945706892B31F4CF5F6A
:1038A000C630C1F780E0CF91089581E0FCCF089544
:1038B0000C94571C0E9451140E940A100E94F3039A
:1038C000109286028091870281110E94A50C0E94AD
:1038D000F20B0C94581C1F921FB61F9211248F9349
:1038E0009F93AF93BF9380918502811113C0809104
:1038F000B9039091BA03A091BB03B091BC03419668
:10390000A11DB11D8093B9039093BA03A093BB038B
:10391000B093BC03BF91AF919F918F911F901FBE39
:103920001F90189582E084BD93E095BD9AEF97BDF6
:1039300080936E0008952FB7F8948091B903909109
:10394000BA03A091BB03B091BC032FBF08959C01A3
:103950004FB7F8948091B9039091BA03A091BB033B
:10396000B091BC034FBF821B930B089578941F92B4
:103970001FB61F9211248F939F93AF93BF93809193
:10398000B9039091BA03A091BB03B091BC03019617
:10399000A11DB11D8093B9039093BA03A093BB03FB
:1039A000B093BC03BF91AF919F918F911F901FBEA9
:1039B0001F90189589E0E3E0F0E080935700E491D0
:1039C000F0E0CF018670892B51F180E09FE3909366
:1039D000BE038093BD0381E08093E00080E280938A
:1039E000D8001092C9008FE19EE40197F1F700C062
:1039F000000087E090EBDC018093CE039093CF032F
:103A0000A093D003B093D10388E19CE00FB6F89463
:103A1000A895809360000FBE90936000FFCF80E078
:103A20009EE3E2FDD4CF80E09CE3E1FDD0CF80E0D7
:103A300098E3CDCFAF92BF92CF92DF92EF92FF92F9
:103A40000F931F93CF93C0E0CC24C394D12CE82EC6
:103A5000F12C8C2F0E9457065C0110E000E0C6019B
:103A6000002E02C0880F991F0A94E2F78A219B2139
:103A7000892B99F40F5F1F4F0F30110581F7CF5F2E
:103A8000C63039F780E0CF911F910F91FF90EF90F2
:103A9000DF90CF90BF90AF900895602F7C2F80E093
:103AA0000E945104E816F90629F781E0ECCFCF9384
:103AB000C82F8CE20E941A1D882321F08C2FCF91F1
:103AC0000C941A1D80E0CF910895CF930E94921A12
:103AD000811102C00E94391BC5E608C00E94AD06D4
:103AE0008FE39CE90197F1F700C00000C150B1F7E6
:103AF00089E20E94571D811100C18AE20E94571D70
:103B000081110E94391B85E00E94571D81110E947E
:103B1000DA1C0E949D1A8093840287E00E94571D40
:103B2000882371F08BE10E94571D882309F4C2C0DD
:103B300090918402892F8D7F91FF8260809384020F
:103B4000809184020E94A11A0E94AF1A9093C00330
:103B50008093BF0380EE0E94571D882341F090910F
:103B6000BF03892F8E7F90FF81608093BF0389E31D
:103B70000E94571D882341F09091BF03892F8D7FAC
:103B800091FF82608093BF0382EE0E94571D8823BD
:103B900041F09091BF03892F8B7F92FF84608093C7
:103BA000BF0386EE0E94571D882341F09091BF030A
:103BB000892F877F93FF88608093BF0383EE0E94E5
:103BC000571D882341F09091BF03892F8F7E94FF6A
:103BD00080618093BF0385E30E94571D882341F0D5
:103BE0009091BF03892F8F7D95FF80628093BF03E3
:103BF00081E30E94571D882341F09091BF03892FD4
:103C00008F7B96FF80648093BF0381E10E94571DE4
:103C1000882341F09091BF03892F97FB87F9805843
:103C20008093BF038091BF039091C0030E94BD1A8F
:103C300087E20E94571DC82F8EE10E94571D8111F7
:103C4000C2608FE10E94571D8111C46080E20E9412
:103C5000571D8111C86081E20E94571D8111C0610A
:103C600082E20E94571D8111C06283E20E94571DAB
:103C70008111C06484E20E94571D8823C1F1C0688D
:103C80008C2F0E94AA1A6C2F70E090E080E00E94B6
:103C9000E9178FE00E94571D882319F081E00E94E8
:103CA0003B1B85E10E94571D882339F180E0CF91AD
:103CB0000C943B1B8EE00E94571D882339F0909195
:103CC0008402892F8B7F92FF846038CF80E10E942D
:103CD000571D90918402882329F0892F877F93FFB5
:103CE00088602CCF892F8E7F90FF816027CFC111F4
:103CF000C7CF0E94A61A682FC7CFCF9108950F9300
:103D00001F9341E050E060E070E08A019B0104C035
:103D1000000F111F221F331F8A95D2F7C901B80166
:103D20000E94E9171F910F910C945114EBEFE80FCB
:103D3000EF3308F05AC0F0E0E053F94D0C942C2614
:103D40000E94391B81E0089580918402807F8093D6
:103D5000840281E08093880208950E94FC03F2CFE0
:103D600090918402892F8E7F90FF816080938402DE
:103D700080FDE8CF817F80938402E4CF909184021C
:103D8000892F8D7F91FF82608093840281FFDACF3B
:103D9000809184028160EFCF90918402892F8B7F84
:103DA00092FF84608093840282FDF2CFCBCF90910A
:103DB0008402892F877F93FF88608093840283FD2C
:103DC000E7CFC0CF0E9451149091BF03892F97FB7A
:103DD00087F980588093BF03B5CF80E00E947F1E93
:103DE000B1CF8953FBCF8D51F9CF80E0089580E0AA
:103DF00008950C94F71ECF93C82F809188028823D2
:103E000031F08130B1F01092880280E010C0E09172
:103E10001201F091130180818232B9F78C2F0E9438
:103E2000F71E811119C08C2F0E94961E8170CF91B0
:103E30000895E0911201F09113018081823271F3B3
:103E40008C2F0E94F91E811105C0C43171F038F425
:103E5000CB3061F781E0EACF81E090E0E7CFC93273
:103E600021F0C833B9F380E0E1CF10928802FBCF94
:103E70008091A90208950895CF93DF9300D00F9207
:103E8000CDB7DEB79091C503943019F589837B8354
:103E90006A8382E08093E9008FEF9091E80081507F
:103EA00095FD06C095ED9A95F1F700008111F5CFCB
:103EB0008091E80085FF0DC050E040E063E070E0D5
:103EC000CE0101960E9465218091E8008E77809353
:103ED000E8000F900F900F90DF91CF910895CF934E
:103EE000DF93EC010E944821823011F0843031F4DC
:103EF000BE0184E0DF91CF910C943C1FDF91CF9104
:103F00000895BC0183E00C943C1FCF93DF93EC0138
:103F10000E944821823011F08430B9F580911E0151
:103F20008823B1F18091BF0387FF32C060E282E055
:103F30008093E9008FEF9091E800815095FD06C0D5
:103F400095ED9A95F1F700008111F5CF8091E80089
:103F500085FF1BC080911E0170E050E040E08111A0
:103F600004C050E040E068E070E0CE010E946521AE
:103F70008091E8008E778093E80080E2FE01A9E856
:103F8000B2E001900D928A95E1F7DF91CF9108950B
:103F900068E081E0CDCF8091C403811109C00E9407
:103FA000F5220E9452238091E20084608093E20017
:103FB00008951092C4030895089508950C945A1C0E
:103FC00042E061EC81E00E94712242E261EC82E019
:103FD0000C9471228091C703833009F45FC030F4E0
:103FE0008130C1F1823009F49BC008958A3009F410
:103FF00087C08B3009F46DC0893009F04EC08091C4
:10400000C603813209F049C08091CA039091CB0365
:10401000029708F042C08091E800877F8093E80013
:104020008091E80082FF35C09091F3008091F2000A
:10403000029729F48091F1008B7F813021F48091E7
:10404000F1008093A9028091E8008B778093E800CB
:104050000C94A5228091C603813AF9F48091E8007E
:10406000877F8093E8008091CA039091CB03892BCE
:1040700061F460E289E892E070E00E94B4218091EE
:10408000E8008B778093E800089560E090E080E09E
:10409000F3CF8091C5038111C3CF08958091C603EA
:1040A000813AD9F78091CA039091CB03892BA9F764
:1040B0008091E800877F8093E8008091E80080FF8E
:1040C000FCCF80911E018093F1008091E8008E77F3
:1040D000BDCF8091C603813201F78091CA039091D0
:1040E000CB03892BD1F68091E800877F8093E8008D
:1040F0000E94A5228091C80380931E010C94511444
:104100008091C603813249F68091E800877F8093D1
:10411000E8000E94A5228091C9038093AA02089515
:104120008091C603813A09F0B8CF8091E800877F7B
:104130008093E8008091E80080FFFCCF8091AA0284
:10414000C2CF84B7877F84BF0FB6F894A8958091BB
:104150006000886180936000109260000FBE80E86C
:1041600090E00FB6F89480936100909361000FBEC9
:104170000E9469100E94F5220E9452238091E20061
:1041800084608093E20078940E94DB250E94731083
:1041900084E191E00E9405108091C503853019F0FB
:1041A0000E947D10F9CF0E94001C8091C3038823D8
:1041B00099F30E94421C882379F30E944F21ECCF8F
:1041C0000C94E220292F33272330310519F168F4AC
:1041D0002130310509F44AC02230310509F44BC0C1
:1041E00090E080E030E020E028C02132310579F114
:1041F00022323105A9F780E490E025EF35E0611522
:104200007105D9F08DE690E028E835E06130710560
:10421000A1F0E6CF99278130910599F0009741F000
:104220008230910589F00397D9F6E3E0F5E002C00A
:10423000E7E3F5E0849190E09F01FA013183208368
:104240000895EFE1F5E0F6CFE9E0F5E0F3CF89E09E
:1042500090E02DE435E06115710579F389E090E097
:1042600026E635E06130710541F3BACF82E190E096
:1042700026E735E0E2CF8BE390E02BE335E0DDCFBE
:104280008091C503843011F482E0089581E008959F
:104290008091AB02811102C00C944021089580E10D
:1042A00089BD82E189BD09B400FEFDCF8091D800AF
:1042B0008F7D8093D8008091E00082608093E00041
:1042C0008091E00081FDFCCF0895AF92BF92CF9224
:1042D000DF92FF920F931F93CF93DF936C01EB015B
:1042E0008A010E94C422F82E811123C001151105F4
:1042F00039F0F80180819181C81BD90BC80ED91EF5
:10430000B12CA12C2097A9F08091E80085FD22C056
:104310008091E8008E778093E80001151105A1F0E7
:10432000F80180819181A80EB91EB182A08285E03A
:10433000F82E8F2DDF91CF911F910F91FF90DF907D
:10434000CF90BF90AF9008950E94C4228823D1F2ED
:10435000F82EEFCFF60181916F018093F100219744
:10436000FFEFAF1ABF0ACECFFC018091CC03909132
:10437000CD0386179707A0F06115710529F4909178
:10438000E8009E779093E80090E06115710551F484
:10439000911108C08091E80082FF34C080E0089548
:1043A000BC01F2CF8091C5038823C1F18530C1F1F2
:1043B0008091E80083FD30C08091E80082FDEACF63
:1043C0008091E80080FFE1CF8091F3002091F2001E
:1043D000382F6115710519F02830310558F091E03A
:1043E0002830310509F090E02091E8002E772093E5
:1043F000E800CBCF81918093F100615071092F5F6C
:104400003F4FE7CF8091C503882341F0853041F0CD
:104410008091E80083FFBECF81E0089582E0089597
:1044200083E00895FC018091CC039091CD03861721
:104430009707A0F06115710529F48091E8008E7747
:104440008093E80090E06115710551F4911108C066
:104450008091E80082FF35C080E00895BC01F2CF72
:104460008091C5038823C9F18530C9F18091E800A6
:1044700083FD31C08091E80082FDEACF8091E800A1
:1044800080FFE1CF8091F3002091F200382F611579
:10449000710519F02830310558F091E028303105C8
:1044A00009F090E08091E8008E778093E800CBCF10
:1044B00084918093F1003196615071092F5F3F4FD5
:1044C000E6CF8091C503882341F0853041F080918B
:1044D000E80083FFBDCF81E0089582E0089583E086
:1044E0000895982F973028F08F708093E90081E02D
:1044F00008959093E900242F762F50E0981731F01B
:104500007091EC002091ED005091F00021FD02C06F
:104510009F5FE8CF3091EB003E7F3093EB0030910E
:10452000ED003D7F3093ED003091EB003160309332
:10453000EB007093EC002093ED005093F00020917D
:10454000EE0027FDE5CF80E008958091C60387FF48
:1045500013C08091E80082FF06C08091E8008B774D
:104560008093E80004C08091C5038111F2CF0895C3
:104570008091C5038823D9F38091E80080FFF8CFAC
:104580008091E8008E77ECCF2091E4003091E50037
:1045900095E6A9012091EC00822F817020FF06C0D2
:1045A0008091E80080FF06C080E008952091E80037
:1045B00022FD1AC08091C503882389F0853089F0D7
:1045C0008091EB0085FD0FC02091E4003091E50063
:1045D00042175307F9F29150E1F684E0089582E022
:1045E000089583E0089581E008950E9463230E9466
:1045F0006B23E0EEF0E0808181608083E8EDF0E005
:1046000080818F77808319BCA7EDB0E08C918E7F7D
:104610008C9380818F7E80831092C40308950F93C2
:104620001F93CF93DF930E9463230E946B23C8EDF7
:10463000D0E088818F7788838881806888838881AB
:104640008F7D888319BC1092C5031092C10310920C
:10465000C3031092C20300EE10E0F80180818B7F4B
:10466000808388818160888342E060E080E00E94EE
:104670007122E1EEF0E080818E7F8083E2EEF0E057
:10468000808181608083808188608083F80180815F
:104690008E7F8083888180618883DF91CF911F9195
:1046A0000F910895E8EDF0E080818F7E8083E7ED43
:1046B000F0E080818160808384E082BF81E080932C
:1046C000C4030C940F23E8EDF0E080818E7F80839B
:1046D0001092E20008951092DA001092E10008951D
:1046E0001F920F920FB60F9211242F933F934F9367
:1046F0005F936F937F938F939F93AF93BF93EF934A
:10470000FF938091E10082FF0BC08091E20082FF65
:1047100007C08091E1008B7F8093E1000E94DA2541
:104720008091DA0080FF19C08091D80080FF15C009
:104730008091DA008E7F8093DA008091D90080FF2B
:1047400096C080E189BD82E189BD09B400FEFDCF3C
:1047500081E08093C5030E94CB1F8091E10080FF20
:1047600019C08091E20080FF15C08091E2008E7F29
:104770008093E2008091E20080618093E20080916A
:10478000D80080628093D80019BC85E08093C5036F
:104790000E94DD1F8091E10084FF2BC08091E20028
:1047A00084FF27C080E189BD82E189BD89B5982F4A
:1047B000917080FFFBCF8091D8008F7D8093D800CF
:1047C0008091E1008F7E8093E1008091E2008F7EF6
:1047D0008093E2008091E20081608093E20080910A
:1047E000C103882309F449C084E08093C5030E9473
:1047F000DE1F8091E10083FF29C08091E20083FFEA
:1048000025C08091E100877F8093E10082E0809362
:10481000C5031092C1038091E1008E7F8093E10077
:104820008091E2008E7F8093E2008091E2008061BF
:104830008093E20042E060E080E00E94712280917B
:10484000F00088608093F0000E94DC1FFF91EF91E0
:10485000BF91AF919F918F917F916F915F914F9198
:104860003F912F910F900FBE0F901F90189519BC7C
:104870001092C5030E94D91F70CF8091E30087FD7D
:1048800093E09093C503B3CF1F920F920FB60F9290
:1048900011242F933F934F935F936F937F938F9345
:1048A0009F93AF93BF93CF93DF93EF93FF93D091F9
:1048B000E900DF708091EC00C82FC17080FDC0E876
:1048C0001092E9008091F000877F8093F000789447
:1048D0000E9488241092E9008091F0008860809303
:1048E000F000CD2BCF70C093E900FF91EF91DF91E5
:1048F000CF91BF91AF919F918F917F916F915F9178
:104900004F913F912F910F900FBE0F901F901895D0
:104910001F93CF93DF93CDB7DEB7AA970FB6F89466
:10492000DEBF0FBECDBF86EC93E02091F100FC010D
:104930002193CF01F3E08E3C9F07B9F70E94EA1F55
:104940008091E80083FF1EC18091C6039091C70348
:104950009A3008F017C1E92FF0E0E15FF84D0C94B0
:104960002C26803899F0823809F00CC18091CA0356
:104970008F70873008F006C18093E9008091EB00CA
:1049800085FB882780F91092E90006C08091C20358
:104990009091C303911182609091E800977F90936A
:1049A000E8008093F1001092F1008091E8008E778A
:1049B000E5C0882309F4D3C0823009F0E3C08091B8
:1049C000C8038111D6C08091CA038F702FEF280FC2
:1049D000263008F0D7C08093E9002091EB0020FF3B
:1049E000C8C0933031F48091EB0080628093EB007B
:1049F000C0C09091EB0090619093EB0021E030E01B
:104A000001C0220F8A95EAF72093EA001092EA008B
:104A10008091EB008860EACF8111B4C01091C80387
:104A20001F778091E3008078812B8093E300809151
:104A3000E800877F8093E8000E94A5228091E8002B
:104A400080FFFCCF8091E30080688093E30082E0E8
:104A5000111183E08093C50395C08058823008F01F
:104A600091C08091C8039091C9038C3D23E09207C7
:104A7000A1F583E08A838AE289834FB7F894DE0147
:104A8000139620E03EE051E2E32FF0E05093570010
:104A9000E49120FF03C0E295EF703F5FEF708E2F2F
:104AA00090E0EA30C0F0C7968D939D932F5F24313C
:104AB00059F74FBF8091E800877F8093E8006AE252
:104AC00070E0CE0101960E94B4218091E8008B77BE
:104AD0008093E80057C0C096E7CF6091CA037091F9
:104AE000CB03AE014F5F5F4F0E94E020BC01892BDA
:104AF00009F448C09091E800977F9093E80089817D
:104B00009A810E941222E1CF8038E1F58091E8007D
:104B1000877F8093E8008091C1038093F10045CFA7
:104B2000811130C09091C803923060F58091E80007
:104B3000877F8093E8009093C1030E94A522809113
:104B4000C103882311F084E005C08091E30087FD54
:104B5000FACF81E08093C5030E94E01F13C08091CB
:104B6000C803813079F481E0933009F080E08093CC
:104B7000C3031092E9008091E800877F8093E800EA
:104B80000E94A5228091E80083FF0AC08091E8007E
:104B9000877F8093E8008091EB0080628093EB0038
:104BA000AA960FB6F894DEBF0FBECDBFDF91CF91AE
:104BB0001F9108950895CF938091C5038823A1F094
:104BC000C091E900CF709091EC00892F817090FD29
:104BD00080E8C82B1092E9008091E80083FD0E94D4
:104BE0008824CF70C093E900CF91089587FB082EE9
:104BF000062687FD819567FD61950E9432260EF499
:104C0000919507FC81950895AA1BBB1B51E107C034
:104C1000AA1FBB1FA617B70710F0A61BB70B881F4C
:104C2000991F5A95A9F780959095BC01CD010895DB
:104C300097FB072E16F4009407D077FD09D00E9449
:104C4000042607FC05D03EF4909581959F4F08956A
:104C5000709561957F4F0895EE0FFF1F0590F491B9
:104C6000E02D0994991B79E004C0991F961708F06C
:104C7000961B881F7A95C9F780950895FB01DC0182
:104C800002C005900D9241505040D8F70895FC01A4
:104C90004150504030F001900616D1F73197CF01C6
:104CA0000895882799270895F999FECF92BD81BD6F
:104CB000F89A992780B50895A6E1B0E044E050E065
:104CC0000C948E26A8E1B0E042E050E00C948E26D1
:104CD000262FF999FECF92BD81BDF89A019700B4B5
:104CE000021639F01FBA20BD0FB6F894FA9AF99A55
:104CF0000FBE08950396272F0E9469260E946826FA
:104D0000252F0E946926242F0C9469260196272FAF
:104D10000E9469260C946826DC01CB01FC01F999FC
:104D2000FECF06C0F2BDE1BDF89A319600B40D92F7
:104D300041505040B8F70895F894FFCF880D900D7A
:104D4000970D9C0DA10DA60DAB0DB00DB50DBA0DB7
:104D5000BF0DC40DC80DCD0DD00DD30DD60D8A0DD0
:104D6000D90D8A0D2912291281128112D3125612DD
:104D700056125612EF127B138A138A13E613561239
:104D80005612EF1360146014691469146B146914DB
:104D9000691469146014601470146914691470142F
:104DA000AD1EA41EB01EA21EF51EF51EA21EF51EEF
:104DB000F51ECC1EF51ED71EE21EF51EF51EF51EB5
:104DC000F51EA21EF51EF51EA21EF51EBE1EF51E28
:104DD000F51EF31EF31EF31EF31EF31EF31EF31E49
:104DE000F31EF31EED1EF51EAD1EA01EF51EF51ED4
:104DF000F51EF51EF51EF51EF51EF51EF51EF51E1B
:104E0000ED1EF51EF51EA21EF51EF11EF11EF11E71
:104E1000F11EF11EF11EF11EF11EF11EED1EB12458
:104E2000D924C225D924C2250C252D25C2258425A7
:024E30009025CB
:104E3200010200500050500118191A1B1C1D1E1FA0
:104E420020216102381F851F3B1F811F6F1F01E256
:104E520000E900EA00B500B600B700CD008301CC3E
:104E6200008A0192019401210223022402250226D2
:104E72000227022A02B300B4006F0070008182830D
:104E82009091929395949697346667F7F6F5F4307D
:104E920031323337360001020202020606060909E0
:104EA200090909090F0F0F0F0F0F151515181818FB
:104EB2001818181818181822E200E900EA00B500BC
:104EC200B600B700CD008301CC008A0192019401A3
:104ED2002102230224022502260227022A02B3000B
:0A4EE200B4006F00700081828300AD
:00000001FF
